:03000000020E3EAF
:0C0E3E00787FE4F6D8FD758177020E8500
:0D0F58000D0A000000000000000000000075
:100ECA00C101C1002020583CA8A93C3D85FABE3E7C
:100EDA002A67103E7D86693E7D86693E2A67103DF7
:070EEA0085FABE3CA8A93CFB
:100F1700E4FDFCC3ED9FEC9E5015E4FBFA0BBB0010
:0F0F2700010ABA01F8BB7EF50DBD00010C80E494
:010F36002298
:100F3700758920758DF3759850758840D2ACD2AFFE
:010F47002287
:080F6F008F993001FDC201223F
:100EF2008B558A568957AB55AA56A957120BB36020
:100F0200130557E5577002055614F9120BB3FF1279
:050F12000F6F80E222D8
:090F6500E4FF3000FDC200AF9969
:010F6E002260
:03002300020F4881
:100F4800309905C299D20132309804C298D2003241
:100C9C0078217C007D007BFF7A0F795B7E007F05DD
:100CAC00120B8DE4F54BF54AF549F54878507C006C
:100CBC00FD7BFF7A0F7960FE7F05120B8D120F37CB
:100CCC00120F658F21120F658F22120F658F231261
:100CDC000F658F24E4F525E52224D0FFE434FFFED4
:100CEC007C007D64120BCCAA06AB07E52124D0FF57
:100CFC00E434FFFE7C037DE8120BCCEF2BFBEE3AC9
:100D0C00FAE52324D0FFE434FFFE7C007D0A120BAD
:100D1C00CCEF2BFFEE3AFEE52424D0FDEC34FFCDD6
:100D2C002FF527ED3EF526E4FBFAEB25E025E02434
:100D3C002CF8120C22EB25E025E02428F8120C3BB1
:100D4C000BBB00010AEB64074A70DFAC26AD27EC45
:100D5C00120A038F478E468D458C44E4F54BF54AB9
:100D6C00F549F548F54CF54DAB4BAA4AA949A848AD
:100D7C00C000C001C002C003AF4DEF25E025E02448
:100D8C0028F8120C2EC000EF25E025E02458F812AC
:100D9C000C22D0001208F8D003D002D001D00012DF
:100DAC0008078F4B8E4A8D498C48054DE54D7002D6
:100DBC00054C6408454C70B0AF4BAE4AAD49AC48DD
:100DCC00120A3C8E4E8F4F7C037DE8120BDEEF2413
:100DDC0030F550AE4EAF4F7C037DE8120BDE7E003B
:100DEC007F64CFCDCFCECCCE120BDEEF2430F551BD
:100DFC00AE4EAF4F7C007D64120BDE7E007F0ACFBF
:100E0C00CDCFCECCCE120BDEEF2430F552AE4EAFA2
:100E1C004F7C007D0A120BDEED2430F5537B007AFB
:100E2C00007950120EF27BFF7A0F7958120EF202F3
:020E3C000CCCDC
:10080000020AA8E86480F8E933E83360110460F074
:10081000ED33EC337009E8FCE9FDEAFEEBFF22045E
:1008200060DED3EB9FEA9EE99DE8C2E78CF0C2F759
:1008300095F0400CE8CCF8E9CDF9EACEFAEBCFFB25
:10084000120A7385D0F05804700320D5B3E8047001
:10085000075002B2D5020AB292D5EC0460F7E4CC9C
:10086000C0E0C398F8603B94186008400DD0E0FBEE
:10087000020A8AE4FBFAC9FC8028E830E406E4C9ED
:10088000FBE4CAFCE830E305E4C9CACBFCE8540742
:100890006010F8C3E913F9EA13FAEB13FBEC13FC4D
:1008A000D8F130F52FC3E49CFCEF9BFFEE9AFEEDF0
:1008B00099FDD0E0FBEF4E4D4C701222DB03020A93
:1008C000AFEC2CFCEF33FFEE33FEED33FDED30E704
:1008D000EB020A8AEF2BFFEE3AFEED39FDD0E0FB8A
:1008E00050130BBB0003020AB2ED13FDEE13FEEF33
:0808F00013FFEC13FC020A8A5D
:1008F800EC4D6011E8497017ED33EC3304600DE4FA
:10090800FCFFFEFD22E933E8330470F8020AA8125E
:100918000A7358046009E4CC24815006285009025F
:100928000AB2284003020AAFC0E0EB4A7044B9801B
:1009380006D0E0FB020A9EEF4E701CBD8008EBFF5C
:10094800EAFEE9FD80EBE98DF0A4FEE5F00209E19D
:10095800E9CDF9EAFEEBFFEF89F0A4FCE5F0CE89DA
:10096800F0A42EFFE435F0CD89F0A42DFEE435F097
:100978008067EF4E7005BD80D780C3EF8BF0A4ACC5
:10098800F0EE8BF0A42CFCE435F0F8EF8AF0A42C00
:10099800E5F038FCE433CB8DF0A42CFCE5F03BF813
:1009A800EE8AF0A42CFCE5F038F8E433CF89F0A403
:1009B8002CFCE5F038CF3400CE89F0A42FFFE5F009
:1009C8003EFEE433C98DF0A42EFEE5F039CD8AF061
:1009D800A42FFFE5F03EFEE43DFD33D0E0FB5007D9
:1009E8000BBB000F020AB2EC2CFCEF33FFEE33FE18
:0609F800ED33FD020A8A46
:1009FE0075F020800E75F010800575F0087D007E74
:100A0E00007F003392D530D503120C14EC33401016
:100A1E00EF33FFEE33FEED33FDEC33FCD5F0ED227C
:0E0A2E00E5F0247EA2D513CC92E7CDCEFF22B8
:100A3C00EDD2E7CD33EC3392D524814006E4FFFEB2
:100A4C00FDFC22FCE4CFCECDCC24E0501174FF8011
:100A5C00EDC3CC13CCCD13CDCE13CECF13CF0470AE
:070A6C00F030D5DE020C148E
:100A7300E9D2E7C933E833F892D5EDD2E7CD33ECC9
:070A830033FC5002B2D52242
:100A8A00EC30E7100FBF000C0EBE00080DBD0004CD
:100A9A000BEB6014A2D5EB13FCED92E7FD2274FF79
:100AAA00FCFDFEFF22E480F8A2D574FF13FC7D80D2
:030ABA00E480EFE6
:100E4A00020C9CE493A3F8E493A34003F68001F216
:100E5A0008DFF48029E493A3F85407240CC8C333A9
:100E6A00C4540F4420C8834004F456800146F6DF78
:100E7A00E4800B0102040810204080900ECAE47E30
:100E8A00019360BCA3FF543F30E509541FFEE4936D
:100E9A00A360010ECF54C025E060A840B8E493A334
:100EAA00FAE493A3F8E493A3C8C582C8CAC583CA5F
:100EBA00F0A3C8C582C8CAC583CADFE9DEE780BE17
:010EF1000000
:100ABD00E709F608DFFA8046E709F208DFFA803E1B
:100ACD0088828C83E709F0A3DFFA8032E309F60808
:100ADD00DFFA8078E309F208DFFA807088828C8370
:100AED00E309F0A3DFFA806489828A83E0A3F60824
:100AFD00DFFA805889828A83E0A3F208DFFA804CFE
:100B0D0080D280FA80C680D4806980F280338010D4
:100B1D0080A680EA809A80A880DA80E280CA80333D
:100B2D0089828A83ECFAE493A3C8C582C8CCC583B5
:100B3D00CCF0A3C8C582C8CCC583CCDFE9DEE78085
:100B4D000D89828A83E493A3F608DFF9ECFAA9F004
:100B5D00EDFB2289828A83ECFAE0A3C8C582C8CC5A
:100B6D00C583CCF0A3C8C582C8CCC583CCDFEADE73
:100B7D00E880DB89828A83E493A3F208DFF980CCD5
:100B8D0088F0EF60010E4E60C388F0ED2402B404CE
:100B9D000050B9F582EB2402B4040050AF23234575
:060BAD008223900B0D7382
:100BB300BB010689828A83E0225002E722BBFE0240
:090BC300E32289828A83E4932273
:100BCC00EF8DF0A4A8F0CF8CF0A428CE8DF0A42E3D
:020BDC00FE22F7
:100BDE00C2D5EC30E709B2D5E4C39DFDE49CFCEE32
:100BEE0030E715B2D5E4C39FFFE49EFE120C47C357
:100BFE00E49DFDE49CFC8003120C4730D507C3E452
:060C0E009FFFE49EFE22A0
:0E0C1400C3E49FFFE49EFEE49DFDE49CFC22F1
:0C0C2200E6FC08E6FD08E6FE08E6FF22FE
:0D0C2E00E6FB08E6F908E6FA08E6CBF82236
:0C0C3B00ECF608EDF608EEF608EFF622E5
:100C4700BC000BBE0029EF8DF084FFADF022E4CC91
:100C5700F875F008EF2FFFEE33FEEC33FCEE9DEC5A
:100C6700984005FCEE9DFE0FD5F0E9E4CEFD22EDA0
:100C7700F8F5F0EE8420D21CFEADF075F008EF2FEA
:100C8700FFED33FD4007985006D5F0F222C398FDDB
:050C97000FD5F0EA2278
:00000001FF
