:03000000020B816F
:0C0B8100787FE4F6D8FD758112020800B0
:100B25005361005265004761004D6100506100440A
:0B0B35006861004E65650053616100BF
:100AA500E4F5A0C282C280C2817F38FE120B5D12BE
:100AB5000B017F067E00120B5D120B017F0C7E0081
:100AC500120B5D120B017F017E00120B5D120B01F3
:070AD5007F807E00020B5D33
:040B01007F047E00EF
:100B0500E4FDFCC3ED9FEC9E5015E4FBFA0BBB0026
:0F0B1500010ABA01F8BB7EF50DBD00010C80E4AA
:010B240022AE
:040B59007F807E001B
:100B5D00C280C281D2828FA07F0A7E00120B05C295
:020B6D008222E2
:100B6F00D280C281D2828FA07F0A7E00120B05C273
:020B7F008222D0
:100ADC008B0C8A0D890EAB0CAA0DA90E120B406063
:100AEC0013050EE50E7002050D14F9120B40FF12E2
:050AFC000B6F80E222F7
:03000B00020A18CE
:100A1800C0E0E5106409450F6002B287E510640183
:100A2800450F7008758CEF758AB9806EE510640201
:100A3800450F7008758CF1758A88805EE51064032F
:100A4800450F7008758CF2758AFB804EE5106404BA
:100A5800450F7008758CF3758ACB803EE5106405E8
:100A6800450F7008758CF5758A26802EE51064068A
:100A7800450F7008758CF6758A3C801EE510640772
:100A8800450F7008758CF7758A52800EE51064085A
:0D0A9800450F7006758CF7758AD0D0E032DE
:10092B0075B07FE5B0647F60030209E875B0BFE581
:10093B00B064BF707875B0DFE5B064DF703F75B041
:10094B00EFE5B064EF7003020A17E5B0B4EE07757C
:10095B000F0075100D22E5B0B4ED07750F00751083
:10096B000F22E5B0B4EB07750F0075101022E5B040
:10097B0064E76003020A17F50F75100E22E5B0B499
:10098B00DE07750F0075100C22E5B0B4DD07750F8F
:10099B000075100922E5B0B4DB07750F0075100860
:1009AB0022E5B064D77065F50F75100722E5B0B47A
:1009BB00BE07750F0075100B22E5B0B4BD07750FA0
:1009CB000075100622E5B0B4BB07750F0075100556
:1009DB0022E5B064B77035F50F75100422E5B0B49D
:1009EB007E07750F0075100A22E5B0B47D07750FF1
:1009FB000075100322E5B0B47B07750F007510026C
:0D0A0B0022E5B0B47706750F0075100122CA
:10080000758911E4F58CF58AD2A9D2AFD28C120A7F
:06081000A5120B59C2877E
:10081600E4F508F509F50AF50B75B00FE509450885
:100826007043E50B450A700EE5B0640F60F4750A77
:1008360000750B0180ECE4F50AF50BE50B450A7033
:100846000EE5B0640F60F4750A00750B0180ECE4E8
:10085600F50AF50B7F14FE120B0512092B7508001D
:1008660075090180B7E5106401450F7012120AA5DB
:10087600120B59120B017BFF7A0B7925020908E549
:10088600106402450F700F120AA5120B597BFF7AEE
:100896000B7928020908E5106403450F700E120A49
:1008A600A5120B597BFF7A0B792B8056E510640451
:1008B600450F700E120AA5120B597BFF7A0B792E83
:1008C6008040E5106405450F700E120AA5120B59FB
:1008D6007BFF7A0B7931802AE5106406450F700E8E
:1008E600120AA5120B597BFF7A0B79348014E51096
:1008F6006407450F7012120AA5120B597BFF7A0B7B
:100906007938120ADC020816E5106408450F600300
:10091600020816120AA5120B597BFF7A0B793C12B4
:050926000ADC020816C6
:100B4000BB010689828A83E0225002E722BBFE02B3
:090B5000E32289828A83E49322E6
:00000001FF
